:020000040800F2
:10000000000001203505000833050008310500080F
:100010003105000831050008310500080000000026
:10002000000000000000000000000000F5010008D2
:100030003305000800000000F9010008FD01000878
:1000400031050008310500083105000831050008B8
:1000500031050008310500083105000831050008A8
:100060003105000831050008310500083105000898
:100070003105000831050008310500083105000888
:100080003105000831050008310500083105000878
:100090003105000831050008310500083105000868
:1000A0003105000831050008310500083105000858
:1000B0003105000831050008310500083105000848
:1000C0003105000831050008310500083105000838
:1000D0003105000831050008310500083105000828
:1000E0003105000831050008310500083105000818
:1000F0003105000831050008310500083105000808
:1001000031050008310500083105000831050008F7
:1001100031050008310500083105000831050008E7
:1001200031050008310500083105000831050008D7
:1001300031050008310500083105000831050008C7
:1001400031050008310500083105000831050008B7
:1001500008B50B4C2046402100F081F82046802154
:1001600000F07DF820464FF4807100F078F82046CA
:100170004FF4007100F073F8642000F093FEE9E79B
:100180000010014000B5174883B000F065F94FF446
:10019000417000F0BFF9402300220321124800F013
:1001A0002FF88023002203210F4800F029F84FF494
:1001B0008073002203210C4800F022F84FF40073F2
:1001C00000220321084800F01BF8042400236422C5
:1001D000CDE900430549064800F004FB00F034FC7B
:1001E000FEE700BFC410000800100140881000089E
:1001F0005101000800F024BA00F052BA00F072BABF
:100200002DE9F04100264FF00F0E9C460368476829
:100210004CFA06F4E4071BD5072E94BF9846B8465F
:10022000B4B24FEA84048ABF203CA4B2A4B20EFA4E
:1002300004F528EA0508A51CADB202FA05F501FA95
:1002400004F42C4344EA0804072E94BF23462746AF
:100250000136102EDCD103604760BDE8F081C36831
:1002600001EA030221EA030141EA02410161704708
:10027000062824D8DFE800F004090E13181D20001A
:10028000104B1868C0F3406070470E4B1868C0F3FD
:10029000C06070470B4B1868C0F340707047094B43
:1002A0001868C0F340407047064B1868C0F3400020
:1002B0007047044B186AF9E7024B586AF6E70020CA
:1002C000704700BF00100240024608B51046FFF715
:1002D000CFFF0028FAD008BD06282AD8DFE800F0B2
:1002E000040A0F14191E2400124A136843F0807385
:1002F000136070470F4A136843F08063F8E70D4AB4
:10030000136843F08053F3E70A4A136843F48033D9
:10031000EEE7084A136843F00103E9E7054A136A68
:1003200043F0010313627047024A536A43F001032A
:100330005362704700100240034A536823F00303DE
:1003400003435360704700BF00100240034A5368E4
:1003500023F4701343EA8043536070470010024057
:10036000034AD36A23F4706343EA0023D3627047DD
:1003700000100240034AD36A23F4704343EA003377
:10038000D362704700100240034A536823F480335D
:1003900043EA00435360704700100240034A536829
:1003A00023F4003343EA4043536070470010024097
:1003B000034A536823F4404343EA80335360704751
:1003C00000100240034A536823F4605343EAC023F9
:1003D0005360704700100240034A536823F4E063FF
:1003E00043EA00235360704700100240034A5368F9
:1003F00023F0F00343EA00135360704700100240FB
:10040000044B5A6818B142F480025A60704722F4D3
:100410008002FAE700100240034AD36A23F00F0378
:100420000343D362704700BF00100240034AD36AFF
:1004300023F0F00343EA0013D36270470010024038
:10044000044BDA6A18B142F48032DA62704722F45F
:100450008032FAE70010024010B504464378012BC1
:100460000CBF03200420FFF737FFFFF72DFFA07814
:10047000FFF7BCFFE078FFF7AFFF2079FFF7A2FF9F
:100480006079FFF795FF207BFFF7BAFFA07900F0B6
:100490009BF82078FFF75AFF6078FFF775FFE07947
:1004A00001282DD9FFF7B8FF207A08B1FFF7C8FF60
:1004B000607A08B1FFF7BAFFA07A30B1FFF750FFBA
:1004C0000120FFF709FFFFF7FFFEE07A30B1FFF7E9
:1004D00051FF0220FFF700FFFFF7F6FE0020FFF7B5
:1004E000FBFEFFF7F1FE0220FFF726FF2269064B15
:1004F0001A606269054B1A60A269054B1A6010BD4B
:10050000FFF74CFFD0E700BF0000002004000020F0
:10051000080000200122430903F1804303F504335E
:10052000196800F01F0002FA00F0084318607047D5
:10053000FEE7704738B51A4A1A4B1B498B421AD34B
:1005400000211A4A93421BD34FF0E022D2F8143D07
:10055000174C43F40073174DC2F8143DAC4212D34C
:10056000154C164DAC4212D3FFF70CFE144C154D32
:10057000AC4210D338BD52F8040B43F8040BDDE74E
:1005800043F8041BDEE754F8043B9847E6E754F8C9
:10059000043B9847E6E754F8043B9847E8E700BF78
:1005A000E010000800000020100000201C45002082
:1005B000E0100008E0100008E0100008E01000085B
:1005C000E0100008E0100008034A136823F0070356
:1005D00003431360704700BF00200240002382B035
:1005E00001934FF0BF0383F31188BFF36F8FBFF305
:1005F0004F8F019B002BFCD002B07047064800686B
:10060000006880F3088862B661B6BFF34F8FBFF30E
:100610006F8F00DF00BF000008ED00E010B44FF066
:100620008074064B21F0010140E9021440F80C3CB3
:1006300040F8202C10BC4038704700BFDD05000892
:10064000074B19680868B0E8F00F80F30988BFF31A
:100650006F8F4FF0000080F311884EF00D0E704741
:10066000100000204FF0BF0383F31188BFF36F8F9A
:10067000BFF34F8F024A136801331360704700BF06
:100680000C000020034A1368013B13600BB983F38D
:10069000118870470C0000200000000000000000DE
:1006A000EFF30980BFF36F8F0D4B1A6820E9F00F4D
:1006B00010602DE908404FF0BF0080F3118800F072
:1006C0003FFC4FF0000080F31188BDE80840196836
:1006D0000868B0E8F00F80F30988BFF36F8F7047A8
:1006E0001000002008B54FF0BF0383F31188BFF35B
:1006F0006F8FBFF34F8F00F093FA28B14FF0E023D4
:100700004FF08052C3F8042D002383F3118808BDF5
:100710004FF0E02300224F2003211A619A615861B3
:10072000196170474FF0E02310B50024D3F8202D55
:1007300082B042F47F02C3F8202DD3F8202D42F07E
:100740007F42C3F8202DFFF7E3FF0A4B1C60FFF741
:1007500055FF00F0F5FB01944FF0BF0383F31188C0
:10076000BFF36F8FBFF34F8F019B002BFCD0002096
:1007700002B010BD0C00002080B54FF0E02A4FF011
:100780008059144D144F154EDFF8548014E0FFF7D4
:1007900069FFFB68DC68201D00F064FC3368013BE6
:1007A00033602B68013B2B60FFF76CFF206B00F080
:1007B00021FC204600F01EFC2B68002BE7D1D8F866
:1007C0000030012BF8D9CAF8049DBFF34F8FBFF357
:1007D0006F8FF1E784000020F800002080000020E7
:1007E0001C0000202DE9F84F4FEA820A07465046C8
:1007F0000D46984600F0D2FB002800F0C5808346E5
:10080000542000F0CBFB0446002800F0CA80C0F85A
:1008100030B0002D00F0D7802B7880F834302B7862
:10082000002B4DD06B7880F835306B78002B47D09B
:10083000AB7880F83630AB78002B41D0EB7880F87D
:100840003730EB78002B3BD02B7980F838302B7980
:10085000002B35D06B7980F839306B79002B2FD095
:10086000AB7980F83A30AB7953B3EB7980F83B3011
:10087000EB792BB32B7A80F83C302B7A03B36B7A6D
:1008800080F83D306B7ADBB1AB7A80F83E30AB7AE2
:10089000B3B1EB7A80F83F30EB7A8BB12B7B80F8E9
:1008A00040302B7B63B16B7B80F841306B7B3BB17D
:1008B000AB7B80F84230AB7B13B1EB7B80F84330ED
:1008C000002384F843300A9E0025042E28BF042606
:1008D00004F104094846C4E91165E66200F098FB9A
:1008E00004F1180000F094FBAAF1040C0BEB0C00CF
:1008F000C6F10506E56442463946A66184F85050C3
:100900002461646220F00700FFF788FE0B9B2060E3
:1009100003B11C60FFF7A6FE3E4A3F4E1368013349
:1009200013603368002B45D03C4F3B6883B3E36AC8
:10093000DFF8EC8001253B48DFF8ECC0026849464F
:100940002A440260DCF8002003EB830005FA03F37D
:10095000134308EB8000CCF8003000F05DFBFFF79C
:1009600091FE3B681BB33268E36AD26A9A421ED298
:100970004FF0E0234FF08052C3F8042DBFF34F8FA8
:10098000BFF36F8F284601E04FF0FF30BDE8F88FCE
:100990003368DFF88C80DA6AE36A9A4298BF346081
:1009A000C8E7584600F026FB4FF0FF30EEE7284638
:1009B000BDE8F88F34601368012B07D0E36ADFF8D5
:1009C0006080164FB6E780F834507CE7DFF850803F
:1009D000454608F164072846143500F00DFBBD427A
:1009E000F9D1124F124D384600F006FB284600F0B0
:1009F00003FB104800F000FB0F4800F0FDFA0F4821
:100A000000F0FAFA0E4B1F600E4B044F1D60E36AB4
:100A100090E700BF8000002010000020E0000020D0
:100A20001C0000209000002094000020980000206E
:100A3000AC000020CC000020F8000020E4000020E2
:100A400014000020180000202DE9F8434FF4007036
:100A500000F0A4FA00287BD00546542000F09EFA4E
:100A60000446002876D00026574B00F10408C0E960
:100A70000C534046C4E9116684F8386084F843603A
:100A8000E66200F0C5FA04F1180000F0C1FA05238F
:100A900005F5FE7032464D49E664A3612461646247
:100AA00084F8506020F00700FFF7B8FD484B206045
:100AB0001C60FFF7D7FD474A474F136801331360A7
:100AC0003B68002B54D0454D2B68002B47D0E26A81
:100AD000DFF80C910123DFF80CC1434EDCF8000075
:100AE00041461844CCF80000D6F800C002EB820062
:100AF000934043EA0C0309EB8000336000F08CFA6A
:100B0000FFF7C0FD2B6873B13A68E36AD26A9A4274
:100B100009D24FF0E0234FF08052C3F8042DBFF309
:100B20004F8FBFF36F8F4FF0BF0383F31188BFF375
:100B30006F8FBFF34F8F4FF0FF34012100222B4BFB
:100B40002B48046029601A60BDE8F843FFF7EABD4E
:100B5000BDE8F8832846BDE8F84300F04BBA3B688F
:100B6000E26ADB6ADFF87890934298BF3C60B1E7B5
:100B70003C601368012B04D0E26ADFF86490174DE3
:100B8000A8E7DFF85C904D4609F164062846143565
:100B900000F032FAAE42F9D1164E174D304600F051
:100BA0002BFA284600F028FA144800F025FA1448D9
:100BB00000F022FA134800F01FFA134BE26A1E609D
:100BC000124B1D60054D85E749444C4579070008E7
:100BD000C00000208000002010000020E000002065
:100BE0001C00002090000020940000200C01002038
:100BF000C400002098000020AC000020CC000020A1
:100C0000F8000020E400002014000020180000205C
:100C1000024A136801331360704700BF8C00002044
:100C20002DE9F04F494B83B01B68002B47D1484B4F
:100C30001D6801351D60002D4FD0464B01931B6888
:100C4000AB4260D8444E33681C68002C75D0002439
:100C5000DFF80881DFF80891424F23E0504600F0AA
:100C600001FADBF828200BF118000AB100F0FAF9BC
:100C70000122DBF82C003B68824000EB80001A4325
:100C8000514608EB80003A6000F0C6F9D9F8002020
:100C90003068DBF82C10D26A0368914228BF012427
:100CA000002B4ED03368DB68D3F80CB0DBF804209F
:100CB0000BF1040A9542D1D2019B1A6028E000246E
:100CC000294A136801331360284B1B68002B0CBFA3
:100CD0002046012003B0BDE8F08F1F4B244A18685E
:100CE00011681960234910600A6801320A601A68A5
:100CF0001268CAB94FF0FF33164A136013461B68D7
:100D00000192AB429ED90024DFF85080DFF850906A
:100D1000D9F80030DB6A03EB83039B0058F80330FB
:100D2000022B28BF0124CFE71B680A4ADB68019227
:100D3000DB685B681360134681E7DFF82080DFF82B
:100D400020904FF0FF33019A1360E1E78C00002000
:100D50000C010020C4000020140000201C00002012
:100D600010000020940000208800002010010020C6
:100D700018000020C80000202DE9F84FFFF772FC92
:100D80003E4B1A68013A1A601B68002B5ED13C4B3F
:100D90001B68002B5AD0DFF8ECA0DAF80030002BEB
:100DA00068D00126384DDFF8E480394FDFF8E49051
:100DB000DAF80C30DC6804F1040B04F1180000F0E0
:100DC00051F9584600F04EF9E06A2A6806FA00F335
:100DD00000EB80001343594608EB80002B6000F0C5
:100DE0001BF93B68E26ADB6A9A4235D3C9F80060B6
:100DF000DAF80030002BDBD1274B1A681268002A82
:100E000033D01A68254BD268D26852681A60244ED3
:100E1000346844B10125FFF703FF08B1C9F8005059
:100E2000013CF8D13460D9F800307BB14FF0E023B9
:100E30004FF08052C3F8042DBFF34F8FBFF36F8F75
:100E40000124FFF71FFC2046BDE8F88F0024FFF7C0
:100E500019FC2046BDE8F88FDAF80030002BA7D146
:100E60000D4B1A681268002ACBD14FF0FF320B4BA2
:100E70001A60CCE7DFF81C90C9E700BF8C000020A7
:100E800080000020CC000020940000201C000020E6
:100E9000100000201001002014000020C4000020D9
:100EA0008800002070B550B94FF0E0234FF0805219
:100EB000C3F8042DBFF34F8FBFF36F8F70BD194A76
:100EC00019491368194D0133136004460E682868E8
:100ED000043000F0C7F848B92B681549DA6A0123D5
:100EE00003FA02F20B6823EA02030B602B68A419D1
:100EF0005C600FD20F4B18682968043100F09AF833
:100F00000D4B1A68944238BF1C60FFF735FF00286C
:100F1000CAD070BD094B18682968043100F08AF8FE
:100F2000F3E700BF8C0000200C010020100000201F
:100F30009400002014000020C400002018000020AD
:100F4000114B1B681BB10122104B1A6070470F49EF
:100F50000F4A0B601368B3FA83F3DBB20D4AC3F197
:100F60001F0303EB830302EB83010A464868083240
:100F7000436893424B6008BF5B68DA6808BF4B6008
:100F8000054B1A60704700BF8C0000201001002044
:100F9000940000201C0000201000002038B50446FA
:100FA00043071CBF20F007040834FFF731FE0E4A48
:100FB00013689BB144F2F7310C4A15682C448C42FB
:100FC00007D8A54205D21D441460FFF7D5FE284678
:100FD00038BD0025FFF7D0FE284638BD044B23F06E
:100FE00007031360E6E700BF140100201845002046
:100FF00020010020704700BF4FF0FF31002200F1B8
:101000000803C0E90131C0E903330260704700BF43
:1010100000230361704700BF436810B49C680268F6
:101020008C609C6801324B606160996010BC086103
:101030000260704730B40D686B1C10D000F10803DB
:101040001C465B681A68AA42FAD902684B600132F2
:1010500099608C606160086130BC0260704704690F
:101060006368F2E7036910B4D0E901125C688A6032
:1010700051600021844208BF5A601A680161013A38
:101080001A60186810BC70474C454400040000000A
:1010900000000000000000000000000000366E01AB
:1010A00000366E0100366E010A00000400030100E4
:1010B0000000000001000000006CDC0200366E0140
:1010C000006CDC020E0000040003020000000000BF
:1010D000000000000090D0030048E8010090D00319
:1010E00000127A0000127A0000127A00AAAAAAAAB4
:0400000508000535B5
:00000001FF
